:040000008A11F72F3B
:100C5E00F000700883120313930083160313141C01
:100C6E00392E3A2E342E0800831603130613061659
:100C7E008713071387112230831203139400C03099
:100C8E00831603139400080071080F395038F500CD
:100C9E007308F60083120313071375088A112F26A3
:100CAE008A1176088A112F268A11831203130717C9
:100CBE000800F0007008403E840083138001840A0F
:100CCE0080017008423E84008001840A8001700811
:100CDE00443E84008001840A80010800F6007608F4
:100CEE00443E840083130008F200840A0008F300D7
:100CFE00720873040319842E862E0130872E00305D
:100D0E00F400F5017408F0007508F1000800F60013
:100D1E007608443E840083130008F200840A00081B
:100D2E00F30010307206730403199E2EA02E0130AC
:100D3E00A12E0030F400F5017408F0007508F100E2
:100D4E000800831203179E019F01831603130515D6
:100D5E00831203171E15831203131F08C339083895
:100D6E009F00831603131F088F3910389F008312BC
:100D7E0003139F171F141F130800831203139F14CE
:100D8E009F18CA2ECB2EC72E1E08F400F50174082C
:100D9E00F6007508F700831603131E08F400F5011C
:100DAE007408F8007508F9007908F3007808F20065
:100DBE007708F1007608F0000800FB007B088A1126
:100DCE008E268A1170087104031DEE2EEF2E342F1D
:100DDE007B08423E84008313000883120313A00095
:100DEE0001300310A00DFF3E031DF82E0310200D41
:100DFE007B07A1002108840077088000840A780808
:100E0E008000840A79088000840A7A0880007B08B2
:100E1E00423E84000008A000840A0008A1002008B9
:100E2E00013EA20021080318013E003EA3000F3030
:100E3E002205A40000302305A5007B08423E840055
:100E4E0024088000840A250880007B08443E840024
:100E5E0001308007840A0318800A08008A11A82628
:100E6E008A118A113B268A11A8308A1160268A11AE
:100E7E008312031307178715A8308A118E268A113D
:100E8E0070087104031D4C2F4D2F662F8A11C42636
:100E9E008A11730883160313A3007208A200710847
:100EAE00A1007008A0002308FA002208F90021080A
:100EBE00F8002008F700A8308A11E4268A11A8301D
:100ECE008A1175268A1170087104031D6F2F702FF9
:100EDE00432FA8308A118C278A117A0883160313A0
:100EEE00A7007908A6007808A5007708A4002708AF
:100EFE00F4002608F3002508F2002408F1008A11F8
:100F0E004B268A11432F8A11002883120313AA003D
:100F1E002E08A9002D08A8002C08A7002B08A60053
:100F2E002A088A1175268A1170087104031DA02FD4
:100F3E00A12FEC2F831203132A08403E8400831343
:100F4E000008A00001300310A00DFF3E031DAA2FC4
:100F5E000310200D2A07A100210884000008A60016
:100F6E00840A0008A700840A0008A800840A000862
:100F7E00A9002A08403E84000008A000840A000848
:100F8E00A1002008013EA20021080318013E003EE8
:100F9E00A3000F302205A40000302305A5002A0867
:100FAE00403E840024088000840A250880002A0818
:100FBE00443E8400FF308007840F00080318000AA7
:100FCE00FF00FF307F07800084038312031329087C
:100FDE00FA002808F9002708F8002608F70008008C
:100FEE0083120313AB01AC01AD01AE0183018A1173
:020FFE00352F8D
:02400E00F4308C
:00000001FF
